{
  "_format": "hh-sol-artifact-1",
  "contractName": "GoldToken",
  "sourceName": "contracts/gold.sol",
  "abi": [
    {
      "inputs": [
        {
          "internalType": "address payable",
          "name": "_sellerWallet",
          "type": "address"
        },
        {
          "internalType": "uint256",
          "name": "_initialSellPrice",
          "type": "uint256"
        },
        {
          "internalType": "uint256",
          "name": "_initialBuyPrice",
          "type": "uint256"
        },
        {
          "internalType": "address",
          "name": "initialOwner",
          "type": "address"
        }
      ],
      "stateMutability": "nonpayable",
      "type": "constructor"
    },
    {
      "inputs": [
        {
          "internalType": "address",
          "name": "spender",
          "type": "address"
        },
        {
          "internalType": "uint256",
          "name": "allowance",
          "type": "uint256"
        },
        {
          "internalType": "uint256",
          "name": "needed",
          "type": "uint256"
        }
      ],
      "name": "ERC20InsufficientAllowance",
      "type": "error"
    },
    {
      "inputs": [
        {
          "internalType": "address",
          "name": "sender",
          "type": "address"
        },
        {
          "internalType": "uint256",
          "name": "balance",
          "type": "uint256"
        },
        {
          "internalType": "uint256",
          "name": "needed",
          "type": "uint256"
        }
      ],
      "name": "ERC20InsufficientBalance",
      "type": "error"
    },
    {
      "inputs": [
        {
          "internalType": "address",
          "name": "approver",
          "type": "address"
        }
      ],
      "name": "ERC20InvalidApprover",
      "type": "error"
    },
    {
      "inputs": [
        {
          "internalType": "address",
          "name": "receiver",
          "type": "address"
        }
      ],
      "name": "ERC20InvalidReceiver",
      "type": "error"
    },
    {
      "inputs": [
        {
          "internalType": "address",
          "name": "sender",
          "type": "address"
        }
      ],
      "name": "ERC20InvalidSender",
      "type": "error"
    },
    {
      "inputs": [
        {
          "internalType": "address",
          "name": "spender",
          "type": "address"
        }
      ],
      "name": "ERC20InvalidSpender",
      "type": "error"
    },
    {
      "inputs": [
        {
          "internalType": "address",
          "name": "owner",
          "type": "address"
        }
      ],
      "name": "OwnableInvalidOwner",
      "type": "error"
    },
    {
      "inputs": [
        {
          "internalType": "address",
          "name": "account",
          "type": "address"
        }
      ],
      "name": "OwnableUnauthorizedAccount",
      "type": "error"
    },
    {
      "anonymous": false,
      "inputs": [
        {
          "indexed": true,
          "internalType": "address",
          "name": "owner",
          "type": "address"
        },
        {
          "indexed": true,
          "internalType": "address",
          "name": "spender",
          "type": "address"
        },
        {
          "indexed": false,
          "internalType": "uint256",
          "name": "value",
          "type": "uint256"
        }
      ],
      "name": "Approval",
      "type": "event"
    },
    {
      "anonymous": false,
      "inputs": [
        {
          "indexed": true,
          "internalType": "address",
          "name": "to",
          "type": "address"
        },
        {
          "indexed": false,
          "internalType": "uint256",
          "name": "amount",
          "type": "uint256"
        }
      ],
      "name": "GLDMinted",
      "type": "event"
    },
    {
      "anonymous": false,
      "inputs": [
        {
          "indexed": true,
          "internalType": "address",
          "name": "buyer",
          "type": "address"
        },
        {
          "indexed": false,
          "internalType": "uint256",
          "name": "amount",
          "type": "uint256"
        }
      ],
      "name": "GoldPurchased",
      "type": "event"
    },
    {
      "anonymous": false,
      "inputs": [
        {
          "indexed": true,
          "internalType": "address",
          "name": "user",
          "type": "address"
        },
        {
          "indexed": false,
          "internalType": "uint256",
          "name": "amount",
          "type": "uint256"
        },
        {
          "indexed": false,
          "internalType": "uint256",
          "name": "timestamp",
          "type": "uint256"
        }
      ],
      "name": "GoldRedeemed",
      "type": "event"
    },
    {
      "anonymous": false,
      "inputs": [
        {
          "indexed": true,
          "internalType": "address",
          "name": "seller",
          "type": "address"
        },
        {
          "indexed": false,
          "internalType": "uint256",
          "name": "amount",
          "type": "uint256"
        }
      ],
      "name": "GoldSold",
      "type": "event"
    },
    {
      "anonymous": false,
      "inputs": [
        {
          "indexed": true,
          "internalType": "address",
          "name": "previousOwner",
          "type": "address"
        },
        {
          "indexed": true,
          "internalType": "address",
          "name": "newOwner",
          "type": "address"
        }
      ],
      "name": "OwnershipTransferred",
      "type": "event"
    },
    {
      "anonymous": false,
      "inputs": [
        {
          "indexed": false,
          "internalType": "uint256",
          "name": "sellPrice",
          "type": "uint256"
        },
        {
          "indexed": false,
          "internalType": "uint256",
          "name": "buyPrice",
          "type": "uint256"
        }
      ],
      "name": "PricesUpdated",
      "type": "event"
    },
    {
      "anonymous": false,
      "inputs": [
        {
          "indexed": true,
          "internalType": "address",
          "name": "from",
          "type": "address"
        },
        {
          "indexed": true,
          "internalType": "address",
          "name": "to",
          "type": "address"
        },
        {
          "indexed": false,
          "internalType": "uint256",
          "name": "value",
          "type": "uint256"
        }
      ],
      "name": "Transfer",
      "type": "event"
    },
    {
      "inputs": [
        {
          "internalType": "address",
          "name": "owner",
          "type": "address"
        },
        {
          "internalType": "address",
          "name": "spender",
          "type": "address"
        }
      ],
      "name": "allowance",
      "outputs": [
        {
          "internalType": "uint256",
          "name": "",
          "type": "uint256"
        }
      ],
      "stateMutability": "view",
      "type": "function"
    },
    {
      "inputs": [
        {
          "internalType": "address",
          "name": "spender",
          "type": "address"
        },
        {
          "internalType": "uint256",
          "name": "value",
          "type": "uint256"
        }
      ],
      "name": "approve",
      "outputs": [
        {
          "internalType": "bool",
          "name": "",
          "type": "bool"
        }
      ],
      "stateMutability": "nonpayable",
      "type": "function"
    },
    {
      "inputs": [
        {
          "internalType": "address",
          "name": "spender",
          "type": "address"
        },
        {
          "internalType": "uint256",
          "name": "amount",
          "type": "uint256"
        }
      ],
      "name": "approveGLD",
      "outputs": [
        {
          "internalType": "bool",
          "name": "",
          "type": "bool"
        }
      ],
      "stateMutability": "nonpayable",
      "type": "function"
    },
    {
      "inputs": [
        {
          "internalType": "address",
          "name": "account",
          "type": "address"
        }
      ],
      "name": "balanceOf",
      "outputs": [
        {
          "internalType": "uint256",
          "name": "",
          "type": "uint256"
        }
      ],
      "stateMutability": "view",
      "type": "function"
    },
    {
      "inputs": [
        {
          "internalType": "uint256",
          "name": "value",
          "type": "uint256"
        }
      ],
      "name": "burn",
      "outputs": [],
      "stateMutability": "nonpayable",
      "type": "function"
    },
    {
      "inputs": [
        {
          "internalType": "address",
          "name": "account",
          "type": "address"
        },
        {
          "internalType": "uint256",
          "name": "value",
          "type": "uint256"
        }
      ],
      "name": "burnFrom",
      "outputs": [],
      "stateMutability": "nonpayable",
      "type": "function"
    },
    {
      "inputs": [],
      "name": "buyGold",
      "outputs": [],
      "stateMutability": "payable",
      "type": "function"
    },
    {
      "inputs": [],
      "name": "buyPrice",
      "outputs": [
        {
          "internalType": "uint256",
          "name": "",
          "type": "uint256"
        }
      ],
      "stateMutability": "view",
      "type": "function"
    },
    {
      "inputs": [],
      "name": "decimals",
      "outputs": [
        {
          "internalType": "uint8",
          "name": "",
          "type": "uint8"
        }
      ],
      "stateMutability": "view",
      "type": "function"
    },
    {
      "inputs": [],
      "name": "getCirculatingSupply",
      "outputs": [
        {
          "internalType": "uint256",
          "name": "",
          "type": "uint256"
        }
      ],
      "stateMutability": "view",
      "type": "function"
    },
    {
      "inputs": [],
      "name": "getContractBalance",
      "outputs": [
        {
          "internalType": "uint256",
          "name": "",
          "type": "uint256"
        }
      ],
      "stateMutability": "view",
      "type": "function"
    },
    {
      "inputs": [],
      "name": "getGLDInventory",
      "outputs": [
        {
          "internalType": "uint256",
          "name": "",
          "type": "uint256"
        }
      ],
      "stateMutability": "view",
      "type": "function"
    },
    {
      "inputs": [],
      "name": "getPrices",
      "outputs": [
        {
          "internalType": "uint256",
          "name": "",
          "type": "uint256"
        },
        {
          "internalType": "uint256",
          "name": "",
          "type": "uint256"
        }
      ],
      "stateMutability": "view",
      "type": "function"
    },
    {
      "inputs": [],
      "name": "isFullyBacked",
      "outputs": [
        {
          "internalType": "bool",
          "name": "",
          "type": "bool"
        }
      ],
      "stateMutability": "view",
      "type": "function"
    },
    {
      "inputs": [
        {
          "internalType": "address",
          "name": "to",
          "type": "address"
        },
        {
          "internalType": "uint256",
          "name": "amount",
          "type": "uint256"
        }
      ],
      "name": "mintGLD",
      "outputs": [],
      "stateMutability": "nonpayable",
      "type": "function"
    },
    {
      "inputs": [],
      "name": "name",
      "outputs": [
        {
          "internalType": "string",
          "name": "",
          "type": "string"
        }
      ],
      "stateMutability": "view",
      "type": "function"
    },
    {
      "inputs": [],
      "name": "owner",
      "outputs": [
        {
          "internalType": "address",
          "name": "",
          "type": "address"
        }
      ],
      "stateMutability": "view",
      "type": "function"
    },
    {
      "inputs": [
        {
          "internalType": "address",
          "name": "user",
          "type": "address"
        },
        {
          "internalType": "uint256",
          "name": "amount",
          "type": "uint256"
        }
      ],
      "name": "redeemGoldFrom",
      "outputs": [],
      "stateMutability": "nonpayable",
      "type": "function"
    },
    {
      "inputs": [],
      "name": "renounceOwnership",
      "outputs": [],
      "stateMutability": "nonpayable",
      "type": "function"
    },
    {
      "inputs": [
        {
          "internalType": "uint256",
          "name": "amount",
          "type": "uint256"
        }
      ],
      "name": "sellGold",
      "outputs": [],
      "stateMutability": "nonpayable",
      "type": "function"
    },
    {
      "inputs": [],
      "name": "sellPrice",
      "outputs": [
        {
          "internalType": "uint256",
          "name": "",
          "type": "uint256"
        }
      ],
      "stateMutability": "view",
      "type": "function"
    },
    {
      "inputs": [],
      "name": "sellerWallet",
      "outputs": [
        {
          "internalType": "address payable",
          "name": "",
          "type": "address"
        }
      ],
      "stateMutability": "view",
      "type": "function"
    },
    {
      "inputs": [
        {
          "internalType": "uint256",
          "name": "newSellPrice",
          "type": "uint256"
        },
        {
          "internalType": "uint256",
          "name": "newBuyPrice",
          "type": "uint256"
        }
      ],
      "name": "setPrices",
      "outputs": [],
      "stateMutability": "nonpayable",
      "type": "function"
    },
    {
      "inputs": [],
      "name": "symbol",
      "outputs": [
        {
          "internalType": "string",
          "name": "",
          "type": "string"
        }
      ],
      "stateMutability": "view",
      "type": "function"
    },
    {
      "inputs": [],
      "name": "totalSupply",
      "outputs": [
        {
          "internalType": "uint256",
          "name": "",
          "type": "uint256"
        }
      ],
      "stateMutability": "view",
      "type": "function"
    },
    {
      "inputs": [
        {
          "internalType": "address",
          "name": "to",
          "type": "address"
        },
        {
          "internalType": "uint256",
          "name": "value",
          "type": "uint256"
        }
      ],
      "name": "transfer",
      "outputs": [
        {
          "internalType": "bool",
          "name": "",
          "type": "bool"
        }
      ],
      "stateMutability": "nonpayable",
      "type": "function"
    },
    {
      "inputs": [
        {
          "internalType": "address",
          "name": "from",
          "type": "address"
        },
        {
          "internalType": "address",
          "name": "to",
          "type": "address"
        },
        {
          "internalType": "uint256",
          "name": "value",
          "type": "uint256"
        }
      ],
      "name": "transferFrom",
      "outputs": [
        {
          "internalType": "bool",
          "name": "",
          "type": "bool"
        }
      ],
      "stateMutability": "nonpayable",
      "type": "function"
    },
    {
      "inputs": [
        {
          "internalType": "address",
          "name": "newOwner",
          "type": "address"
        }
      ],
      "name": "transferOwnership",
      "outputs": [],
      "stateMutability": "nonpayable",
      "type": "function"
    }
  ],
  "bytecode": "0x608060405234801561001057600080fd5b506040516130fa3803806130fa833981810160405281019061003291906106d6565b806040518060400160405280600a81526020017f476f6c6420546f6b656e000000000000000000000000000000000000000000008152506040518060400160405280600381526020017f474c44000000000000000000000000000000000000000000000000000000000081525081600390816100ae9190610983565b5080600490816100be9190610983565b505050600073ffffffffffffffffffffffffffffffffffffffff168173ffffffffffffffffffffffffffffffffffffffff16036101335760006040517f1e4fbdf700000000000000000000000000000000000000000000000000000000815260040161012a9190610a64565b60405180910390fd5b6101428161028360201b60201c565b50600073ffffffffffffffffffffffffffffffffffffffff168473ffffffffffffffffffffffffffffffffffffffff16036101b2576040517f08c379a00000000000000000000000000000000000000000000000000000000081526004016101a990610adc565b60405180910390fd5b8282106101f4576040517f08c379a00000000000000000000000000000000000000000000000000000000081526004016101eb90610b6e565b60405180910390fd5b83600860006101000a81548173ffffffffffffffffffffffffffffffffffffffff021916908373ffffffffffffffffffffffffffffffffffffffff160217905550826006819055508160078190555061027a3061025561034960201b60201c565b600a6102619190610cfd565b620f424061026f9190610d48565b61035260201b60201c565b50505050610e1f565b6000600560009054906101000a900473ffffffffffffffffffffffffffffffffffffffff16905081600560006101000a81548173ffffffffffffffffffffffffffffffffffffffff021916908373ffffffffffffffffffffffffffffffffffffffff1602179055508173ffffffffffffffffffffffffffffffffffffffff168173ffffffffffffffffffffffffffffffffffffffff167f8be0079c531659141344cd1fd0a4f28419497f9722a3daafe3b4186f6b6457e060405160405180910390a35050565b60006012905090565b600073ffffffffffffffffffffffffffffffffffffffff168273ffffffffffffffffffffffffffffffffffffffff16036103c45760006040517fec442f050000000000000000000000000000000000000000000000000000000081526004016103bb9190610a64565b60405180910390fd5b6103d6600083836103da60201b60201c565b5050565b600073ffffffffffffffffffffffffffffffffffffffff168373ffffffffffffffffffffffffffffffffffffffff160361042c5780600260008282546104209190610d8a565b925050819055506104ff565b60008060008573ffffffffffffffffffffffffffffffffffffffff1673ffffffffffffffffffffffffffffffffffffffff168152602001908152602001600020549050818110156104b8578381836040517fe450d38c0000000000000000000000000000000000000000000000000000000081526004016104af93929190610dcd565b60405180910390fd5b8181036000808673ffffffffffffffffffffffffffffffffffffffff1673ffffffffffffffffffffffffffffffffffffffff16815260200190815260200160002081905550505b600073ffffffffffffffffffffffffffffffffffffffff168273ffffffffffffffffffffffffffffffffffffffff16036105485780600260008282540392505081905550610595565b806000808473ffffffffffffffffffffffffffffffffffffffff1673ffffffffffffffffffffffffffffffffffffffff168152602001908152602001600020600082825401925050819055505b8173ffffffffffffffffffffffffffffffffffffffff168373ffffffffffffffffffffffffffffffffffffffff167fddf252ad1be2c89b69c2b068fc378daa952ba7f163c4a11628f55a4df523b3ef836040516105f29190610e04565b60405180910390a3505050565b600080fd5b600073ffffffffffffffffffffffffffffffffffffffff82169050919050565b600061062f82610604565b9050919050565b61063f81610624565b811461064a57600080fd5b50565b60008151905061065c81610636565b92915050565b6000819050919050565b61067581610662565b811461068057600080fd5b50565b6000815190506106928161066c565b92915050565b60006106a382610604565b9050919050565b6106b381610698565b81146106be57600080fd5b50565b6000815190506106d0816106aa565b92915050565b600080600080608085870312156106f0576106ef6105ff565b5b60006106fe8782880161064d565b945050602061070f87828801610683565b935050604061072087828801610683565b9250506060610731878288016106c1565b91505092959194509250565b600081519050919050565b7f4e487b7100000000000000000000000000000000000000000000000000000000600052604160045260246000fd5b7f4e487b7100000000000000000000000000000000000000000000000000000000600052602260045260246000fd5b600060028204905060018216806107be57607f821691505b6020821081036107d1576107d0610777565b5b50919050565b60008190508160005260206000209050919050565b60006020601f8301049050919050565b600082821b905092915050565b6000600883026108397fffffffffffffffffffffffffffffffffffffffffffffffffffffffffffffffff826107fc565b61084386836107fc565b95508019841693508086168417925050509392505050565b6000819050919050565b600061088061087b61087684610662565b61085b565b610662565b9050919050565b6000819050919050565b61089a83610865565b6108ae6108a682610887565b848454610809565b825550505050565b600090565b6108c36108b6565b6108ce818484610891565b505050565b5b818110156108f2576108e76000826108bb565b6001810190506108d4565b5050565b601f82111561093757610908816107d7565b610911846107ec565b81016020851015610920578190505b61093461092c856107ec565b8301826108d3565b50505b505050565b600082821c905092915050565b600061095a6000198460080261093c565b1980831691505092915050565b60006109738383610949565b9150826002028217905092915050565b61098c8261073d565b67ffffffffffffffff8111156109a5576109a4610748565b5b6109af82546107a6565b6109ba8282856108f6565b600060209050601f8311600181146109ed57600084156109db578287015190505b6109e58582610967565b865550610a4d565b601f1984166109fb866107d7565b60005b82811015610a23578489015182556001820191506020850194506020810190506109fe565b86831015610a405784890151610a3c601f891682610949565b8355505b6001600288020188555050505b505050505050565b610a5e81610698565b82525050565b6000602082019050610a796000830184610a55565b92915050565b600082825260208201905092915050565b7f496e76616c69642073656c6c65722077616c6c65740000000000000000000000600082015250565b6000610ac6601583610a7f565b9150610ad182610a90565b602082019050919050565b60006020820190508181036000830152610af581610ab9565b9050919050565b7f427579207072696365206d757374206265206c657373207468616e2073656c6c60008201527f2070726963650000000000000000000000000000000000000000000000000000602082015250565b6000610b58602683610a7f565b9150610b6382610afc565b604082019050919050565b60006020820190508181036000830152610b8781610b4b565b9050919050565b7f4e487b7100000000000000000000000000000000000000000000000000000000600052601160045260246000fd5b60008160011c9050919050565b6000808291508390505b6001851115610c1457808604811115610bf057610bef610b8e565b5b6001851615610bff5780820291505b8081029050610c0d85610bbd565b9450610bd4565b94509492505050565b600082610c2d5760019050610ce9565b81610c3b5760009050610ce9565b8160018114610c515760028114610c5b57610c8a565b6001915050610ce9565b60ff841115610c6d57610c6c610b8e565b5b8360020a915084821115610c8457610c83610b8e565b5b50610ce9565b5060208310610133831016604e8410600b8410161715610cbf5782820a905083811115610cba57610cb9610b8e565b5b610ce9565b610ccc8484846001610bca565b92509050818404811115610ce357610ce2610b8e565b5b81810290505b9392505050565b600060ff82169050919050565b6000610d0882610662565b9150610d1383610cf0565b9250610d407fffffffffffffffffffffffffffffffffffffffffffffffffffffffffffffffff8484610c1d565b905092915050565b6000610d5382610662565b9150610d5e83610662565b9250828202610d6c81610662565b91508282048414831517610d8357610d82610b8e565b5b5092915050565b6000610d9582610662565b9150610da083610662565b9250828201905080821115610db857610db7610b8e565b5b92915050565b610dc781610662565b82525050565b6000606082019050610de26000830186610a55565b610def6020830185610dbe565b610dfc6040830184610dbe565b949350505050565b6000602082019050610e196000830184610dbe565b92915050565b6122cc80610e2e6000396000f3fe6080604052600436106101b75760003560e01c806370a08231116100ec5780638da5cb5b1161008a578063bd9a548b11610064578063bd9a548b146105df578063dd62ed3e1461060b578063e6139e4614610648578063f2fde38b14610671576101b7565b80638da5cb5b1461054c57806395d89b4114610577578063a9059cbb146105a2576101b7565b80637dc4e694116100c65780637dc4e6941461048e57806382dead16146104b95780638460a5de146104f65780638620410b14610521576101b7565b806370a0823114610411578063715018a61461044e57806379cc679014610465576101b7565b80632f7b8af4116101595780634b750334116101335780634b7503341461036757806350911ace1461039257806369fe17d6146103bb5780636f9fb98a146103e6576101b7565b80632f7b8af414610309578063313ce5671461031357806342966c681461033e576101b7565b80630f1d4a83116101955780630f1d4a831461024d57806318160ddd1461027657806323b872dd146102a15780632b112e49146102de576101b7565b806305fefda7146101bc57806306fdde03146101e5578063095ea7b314610210575b600080fd5b3480156101c857600080fd5b506101e360048036038101906101de919061188b565b61069a565b005b3480156101f157600080fd5b506101fa61072f565b604051610207919061195b565b60405180910390f35b34801561021c57600080fd5b50610237600480360381019061023291906119db565b6107c1565b6040516102449190611a36565b60405180910390f35b34801561025957600080fd5b50610274600480360381019061026f91906119db565b6107e4565b005b34801561028257600080fd5b5061028b6108b9565b6040516102989190611a60565b60405180910390f35b3480156102ad57600080fd5b506102c860048036038101906102c39190611a7b565b6108c3565b6040516102d59190611a36565b60405180910390f35b3480156102ea57600080fd5b506102f36108f2565b6040516103009190611a60565b60405180910390f35b610311610914565b005b34801561031f57600080fd5b50610328610ad9565b6040516103359190611aea565b60405180910390f35b34801561034a57600080fd5b5061036560048036038101906103609190611b05565b610ae2565b005b34801561037357600080fd5b5061037c610af6565b6040516103899190611a60565b60405180910390f35b34801561039e57600080fd5b506103b960048036038101906103b49190611b05565b610afc565b005b3480156103c757600080fd5b506103d0610c5e565b6040516103dd9190611a36565b60405180910390f35b3480156103f257600080fd5b506103fb610cb9565b6040516104089190611a60565b60405180910390f35b34801561041d57600080fd5b5061043860048036038101906104339190611b32565b610cc1565b6040516104459190611a60565b60405180910390f35b34801561045a57600080fd5b50610463610d09565b005b34801561047157600080fd5b5061048c600480360381019061048791906119db565b610d1d565b005b34801561049a57600080fd5b506104a3610d3d565b6040516104b09190611a60565b60405180910390f35b3480156104c557600080fd5b506104e060048036038101906104db91906119db565b610d4d565b6040516104ed9190611a36565b60405180910390f35b34801561050257600080fd5b5061050b610d64565b6040516105189190611b80565b60405180910390f35b34801561052d57600080fd5b50610536610d8a565b6040516105439190611a60565b60405180910390f35b34801561055857600080fd5b50610561610d90565b60405161056e9190611baa565b60405180910390f35b34801561058357600080fd5b5061058c610dba565b604051610599919061195b565b60405180910390f35b3480156105ae57600080fd5b506105c960048036038101906105c491906119db565b610e4c565b6040516105d69190611a36565b60405180910390f35b3480156105eb57600080fd5b506105f4610e6f565b604051610602929190611bc5565b60405180910390f35b34801561061757600080fd5b50610632600480360381019061062d9190611bee565b610e80565b60405161063f9190611a60565b60405180910390f35b34801561065457600080fd5b5061066f600480360381019061066a91906119db565b610f07565b005b34801561067d57600080fd5b5061069860048036038101906106939190611b32565b610fda565b005b6106a2611060565b8181106106e4576040517f08c379a00000000000000000000000000000000000000000000000000000000081526004016106db90611ca0565b60405180910390fd5b81600681905550806007819055507f6546f60f34df611fa42503098acc39d5ab88bc73febe64b3cc14e5a92e3a66a78282604051610723929190611bc5565b60405180910390a15050565b60606003805461073e90611cef565b80601f016020809104026020016040519081016040528092919081815260200182805461076a90611cef565b80156107b75780601f1061078c576101008083540402835291602001916107b7565b820191906000526020600020905b81548152906001019060200180831161079a57829003601f168201915b5050505050905090565b6000806107cc6110e7565b90506107d98185856110ef565b600191505092915050565b6107ec611060565b600073ffffffffffffffffffffffffffffffffffffffff168273ffffffffffffffffffffffffffffffffffffffff160361085b576040517f08c379a000000000000000000000000000000000000000000000000000000000815260040161085290611d6c565b60405180910390fd5b6108658282611101565b8173ffffffffffffffffffffffffffffffffffffffff167f25c2edd5bef4f58462fc9321c0c5d40ae4ecf266f680d5d96cdf5aa6067311fa82426040516108ad929190611bc5565b60405180910390a25050565b6000600254905090565b6000806108ce6110e7565b90506108db858285611183565b6108e6858585611218565b60019150509392505050565b60006108fd30610cc1565b6109056108b9565b61090f9190611dbb565b905090565b6006543414610958576040517f08c379a000000000000000000000000000000000000000000000000000000000815260040161094f90611e3b565b60405180910390fd5b610960610ad9565b600a61096c9190611f8e565b60016109789190611fd9565b61098130610cc1565b10156109c2576040517f08c379a00000000000000000000000000000000000000000000000000000000081526004016109b990612067565b60405180910390fd5b60006007546006546109d49190611dbb565b9050600860009054906101000a900473ffffffffffffffffffffffffffffffffffffffff1673ffffffffffffffffffffffffffffffffffffffff166108fc829081150290604051600060405180830381858888f19350505050158015610a3e573d6000803e3d6000fd5b50610a693033610a4c610ad9565b600a610a589190611f8e565b6001610a649190611fd9565b611218565b3373ffffffffffffffffffffffffffffffffffffffff167f24f85829f6353229354e15bc306c18bf56099338601cd8e1f213fea417c46b77610aa9610ad9565b600a610ab59190611f8e565b6001610ac19190611fd9565b604051610ace9190611a60565b60405180910390a250565b60006012905090565b610af3610aed6110e7565b82611101565b50565b60065481565b80610b0633610cc1565b1015610b47576040517f08c379a0000000000000000000000000000000000000000000000000000000008152600401610b3e906120d3565b60405180910390fd5b6000610b51610ad9565b600a610b5d9190611f8e565b82600754610b6b9190611fd9565b610b759190612122565b905080471015610bba576040517f08c379a0000000000000000000000000000000000000000000000000000000008152600401610bb19061219f565b60405180910390fd5b610bc5333084611218565b3373ffffffffffffffffffffffffffffffffffffffff166108fc829081150290604051600060405180830381858888f19350505050158015610c0b573d6000803e3d6000fd5b503373ffffffffffffffffffffffffffffffffffffffff167f623ec7ef71f50133d75801a01220c27bd1fe4c19e63737f471172025b6e0b2ca83604051610c529190611a60565b60405180910390a25050565b600080610c6a30610cc1565b610c726108b9565b610c7c9190611dbb565b90506000610c88610ad9565b600a610c949190611f8e565b60075483610ca29190611fd9565b610cac9190612122565b9050804710159250505090565b600047905090565b60008060008373ffffffffffffffffffffffffffffffffffffffff1673ffffffffffffffffffffffffffffffffffffffff168152602001908152602001600020549050919050565b610d11611060565b610d1b600061130c565b565b610d2f82610d296110e7565b83611183565b610d398282611101565b5050565b6000610d4830610cc1565b905090565b6000610d5a3384846110ef565b6001905092915050565b600860009054906101000a900473ffffffffffffffffffffffffffffffffffffffff1681565b60075481565b6000600560009054906101000a900473ffffffffffffffffffffffffffffffffffffffff16905090565b606060048054610dc990611cef565b80601f0160208091040260200160405190810160405280929190818152602001828054610df590611cef565b8015610e425780601f10610e1757610100808354040283529160200191610e42565b820191906000526020600020905b815481529060010190602001808311610e2557829003601f168201915b5050505050905090565b600080610e576110e7565b9050610e64818585611218565b600191505092915050565b600080600654600754915091509091565b6000600160008473ffffffffffffffffffffffffffffffffffffffff1673ffffffffffffffffffffffffffffffffffffffff16815260200190815260200160002060008373ffffffffffffffffffffffffffffffffffffffff1673ffffffffffffffffffffffffffffffffffffffff16815260200190815260200160002054905092915050565b610f0f611060565b600073ffffffffffffffffffffffffffffffffffffffff168273ffffffffffffffffffffffffffffffffffffffff1603610f7e576040517f08c379a0000000000000000000000000000000000000000000000000000000008152600401610f759061220b565b60405180910390fd5b610f8882826113d2565b8173ffffffffffffffffffffffffffffffffffffffff167f25b2907b51b54fe24738d1c2c29e9c4db20149e9f06318a74feb2b9f3e54ea2682604051610fce9190611a60565b60405180910390a25050565b610fe2611060565b600073ffffffffffffffffffffffffffffffffffffffff168173ffffffffffffffffffffffffffffffffffffffff16036110545760006040517f1e4fbdf700000000000000000000000000000000000000000000000000000000815260040161104b9190611baa565b60405180910390fd5b61105d8161130c565b50565b6110686110e7565b73ffffffffffffffffffffffffffffffffffffffff16611086610d90565b73ffffffffffffffffffffffffffffffffffffffff16146110e5576110a96110e7565b6040517f118cdaa70000000000000000000000000000000000000000000000000000000081526004016110dc9190611baa565b60405180910390fd5b565b600033905090565b6110fc8383836001611454565b505050565b600073ffffffffffffffffffffffffffffffffffffffff168273ffffffffffffffffffffffffffffffffffffffff16036111735760006040517f96c6fd1e00000000000000000000000000000000000000000000000000000000815260040161116a9190611baa565b60405180910390fd5b61117f8260008361162b565b5050565b600061118f8484610e80565b90507fffffffffffffffffffffffffffffffffffffffffffffffffffffffffffffffff8110156112125781811015611202578281836040517ffb8f41b20000000000000000000000000000000000000000000000000000000081526004016111f99392919061222b565b60405180910390fd5b61121184848484036000611454565b5b50505050565b600073ffffffffffffffffffffffffffffffffffffffff168373ffffffffffffffffffffffffffffffffffffffff160361128a5760006040517f96c6fd1e0000000000000000000000000000000000000000000000000000000081526004016112819190611baa565b60405180910390fd5b600073ffffffffffffffffffffffffffffffffffffffff168273ffffffffffffffffffffffffffffffffffffffff16036112fc5760006040517fec442f050000000000000000000000000000000000000000000000000000000081526004016112f39190611baa565b60405180910390fd5b61130783838361162b565b505050565b6000600560009054906101000a900473ffffffffffffffffffffffffffffffffffffffff16905081600560006101000a81548173ffffffffffffffffffffffffffffffffffffffff021916908373ffffffffffffffffffffffffffffffffffffffff1602179055508173ffffffffffffffffffffffffffffffffffffffff168173ffffffffffffffffffffffffffffffffffffffff167f8be0079c531659141344cd1fd0a4f28419497f9722a3daafe3b4186f6b6457e060405160405180910390a35050565b600073ffffffffffffffffffffffffffffffffffffffff168273ffffffffffffffffffffffffffffffffffffffff16036114445760006040517fec442f0500000000000000000000000000000000000000000000000000000000815260040161143b9190611baa565b60405180910390fd5b6114506000838361162b565b5050565b600073ffffffffffffffffffffffffffffffffffffffff168473ffffffffffffffffffffffffffffffffffffffff16036114c65760006040517fe602df050000000000000000000000000000000000000000000000000000000081526004016114bd9190611baa565b60405180910390fd5b600073ffffffffffffffffffffffffffffffffffffffff168373ffffffffffffffffffffffffffffffffffffffff16036115385760006040517f94280d6200000000000000000000000000000000000000000000000000000000815260040161152f9190611baa565b60405180910390fd5b81600160008673ffffffffffffffffffffffffffffffffffffffff1673ffffffffffffffffffffffffffffffffffffffff16815260200190815260200160002060008573ffffffffffffffffffffffffffffffffffffffff1673ffffffffffffffffffffffffffffffffffffffff168152602001908152602001600020819055508015611625578273ffffffffffffffffffffffffffffffffffffffff168473ffffffffffffffffffffffffffffffffffffffff167f8c5be1e5ebec7d5bd14f71427d1e84f3dd0314c0f7b2291e5b200ac8c7c3b9258460405161161c9190611a60565b60405180910390a35b50505050565b600073ffffffffffffffffffffffffffffffffffffffff168373ffffffffffffffffffffffffffffffffffffffff160361167d5780600260008282546116719190612262565b92505081905550611750565b60008060008573ffffffffffffffffffffffffffffffffffffffff1673ffffffffffffffffffffffffffffffffffffffff16815260200190815260200160002054905081811015611709578381836040517fe450d38c0000000000000000000000000000000000000000000000000000000081526004016117009392919061222b565b60405180910390fd5b8181036000808673ffffffffffffffffffffffffffffffffffffffff1673ffffffffffffffffffffffffffffffffffffffff16815260200190815260200160002081905550505b600073ffffffffffffffffffffffffffffffffffffffff168273ffffffffffffffffffffffffffffffffffffffff160361179957806002600082825403925050819055506117e6565b806000808473ffffffffffffffffffffffffffffffffffffffff1673ffffffffffffffffffffffffffffffffffffffff168152602001908152602001600020600082825401925050819055505b8173ffffffffffffffffffffffffffffffffffffffff168373ffffffffffffffffffffffffffffffffffffffff167fddf252ad1be2c89b69c2b068fc378daa952ba7f163c4a11628f55a4df523b3ef836040516118439190611a60565b60405180910390a3505050565b600080fd5b6000819050919050565b61186881611855565b811461187357600080fd5b50565b6000813590506118858161185f565b92915050565b600080604083850312156118a2576118a1611850565b5b60006118b085828601611876565b92505060206118c185828601611876565b9150509250929050565b600081519050919050565b600082825260208201905092915050565b60005b838110156119055780820151818401526020810190506118ea565b60008484015250505050565b6000601f19601f8301169050919050565b600061192d826118cb565b61193781856118d6565b93506119478185602086016118e7565b61195081611911565b840191505092915050565b600060208201905081810360008301526119758184611922565b905092915050565b600073ffffffffffffffffffffffffffffffffffffffff82169050919050565b60006119a88261197d565b9050919050565b6119b88161199d565b81146119c357600080fd5b50565b6000813590506119d5816119af565b92915050565b600080604083850312156119f2576119f1611850565b5b6000611a00858286016119c6565b9250506020611a1185828601611876565b9150509250929050565b60008115159050919050565b611a3081611a1b565b82525050565b6000602082019050611a4b6000830184611a27565b92915050565b611a5a81611855565b82525050565b6000602082019050611a756000830184611a51565b92915050565b600080600060608486031215611a9457611a93611850565b5b6000611aa2868287016119c6565b9350506020611ab3868287016119c6565b9250506040611ac486828701611876565b9150509250925092565b600060ff82169050919050565b611ae481611ace565b82525050565b6000602082019050611aff6000830184611adb565b92915050565b600060208284031215611b1b57611b1a611850565b5b6000611b2984828501611876565b91505092915050565b600060208284031215611b4857611b47611850565b5b6000611b56848285016119c6565b91505092915050565b6000611b6a8261197d565b9050919050565b611b7a81611b5f565b82525050565b6000602082019050611b956000830184611b71565b92915050565b611ba48161199d565b82525050565b6000602082019050611bbf6000830184611b9b565b92915050565b6000604082019050611bda6000830185611a51565b611be76020830184611a51565b9392505050565b60008060408385031215611c0557611c04611850565b5b6000611c13858286016119c6565b9250506020611c24858286016119c6565b9150509250929050565b7f427579207072696365206d757374206265206c6f776572207468616e2073656c60008201527f6c20707269636500000000000000000000000000000000000000000000000000602082015250565b6000611c8a6027836118d6565b9150611c9582611c2e565b604082019050919050565b60006020820190508181036000830152611cb981611c7d565b9050919050565b7f4e487b7100000000000000000000000000000000000000000000000000000000600052602260045260246000fd5b60006002820490506001821680611d0757607f821691505b602082108103611d1a57611d19611cc0565b5b50919050565b7f496e76616c696420757365722061646472657373000000000000000000000000600082015250565b6000611d566014836118d6565b9150611d6182611d20565b602082019050919050565b60006020820190508181036000830152611d8581611d49565b9050919050565b7f4e487b7100000000000000000000000000000000000000000000000000000000600052601160045260246000fd5b6000611dc682611855565b9150611dd183611855565b9250828203905081811115611de957611de8611d8c565b5b92915050565b7f496e636f72726563742045544820616d6f756e74000000000000000000000000600082015250565b6000611e256014836118d6565b9150611e3082611def565b602082019050919050565b60006020820190508181036000830152611e5481611e18565b9050919050565b60008160011c9050919050565b6000808291508390505b6001851115611eb257808604811115611e8e57611e8d611d8c565b5b6001851615611e9d5780820291505b8081029050611eab85611e5b565b9450611e72565b94509492505050565b600082611ecb5760019050611f87565b81611ed95760009050611f87565b8160018114611eef5760028114611ef957611f28565b6001915050611f87565b60ff841115611f0b57611f0a611d8c565b5b8360020a915084821115611f2257611f21611d8c565b5b50611f87565b5060208310610133831016604e8410600b8410161715611f5d5782820a905083811115611f5857611f57611d8c565b5b611f87565b611f6a8484846001611e68565b92509050818404811115611f8157611f80611d8c565b5b81810290505b9392505050565b6000611f9982611855565b9150611fa483611ace565b9250611fd17fffffffffffffffffffffffffffffffffffffffffffffffffffffffffffffffff8484611ebb565b905092915050565b6000611fe482611855565b9150611fef83611855565b9250828202611ffd81611855565b9150828204841483151761201457612013611d8c565b5b5092915050565b7f496e73756666696369656e7420474c4420696e20636f6e747261637400000000600082015250565b6000612051601c836118d6565b915061205c8261201b565b602082019050919050565b6000602082019050818103600083015261208081612044565b9050919050565b7f4e6f7420656e6f75676820474c44000000000000000000000000000000000000600082015250565b60006120bd600e836118d6565b91506120c882612087565b602082019050919050565b600060208201905081810360008301526120ec816120b0565b9050919050565b7f4e487b7100000000000000000000000000000000000000000000000000000000600052601260045260246000fd5b600061212d82611855565b915061213883611855565b925082612148576121476120f3565b5b828204905092915050565b7f496e73756666696369656e742045544820696e20636f6e747261637400000000600082015250565b6000612189601c836118d6565b915061219482612153565b602082019050919050565b600060208201905081810360008301526121b88161217c565b9050919050565b7f496e76616c696420616464726573730000000000000000000000000000000000600082015250565b60006121f5600f836118d6565b9150612200826121bf565b602082019050919050565b60006020820190508181036000830152612224816121e8565b9050919050565b60006060820190506122406000830186611b9b565b61224d6020830185611a51565b61225a6040830184611a51565b949350505050565b600061226d82611855565b915061227883611855565b92508282019050808211156122905761228f611d8c565b5b9291505056fea264697066735822122055f5dc778c9cb4f7d34347258fc5a1a78f51d672b630ae2007b4240139db666564736f6c634300081c0033",
  "linkReferences": {},
  "deployedLinkReferences": {}
}