{
  "_format": "hh-sol-artifact-1",
  "contractName": "GoldToken",
  "sourceName": "contracts/gold.sol",
  "abi": [
    {
      "inputs": [
        {
          "internalType": "address payable",
          "name": "_sellerWallet",
          "type": "address"
        },
        {
          "internalType": "uint256",
          "name": "_initialSellPrice",
          "type": "uint256"
        },
        {
          "internalType": "uint256",
          "name": "_initialBuyPrice",
          "type": "uint256"
        },
        {
          "internalType": "address",
          "name": "initialOwner",
          "type": "address"
        }
      ],
      "stateMutability": "nonpayable",
      "type": "constructor"
    },
    {
      "inputs": [
        {
          "internalType": "address",
          "name": "spender",
          "type": "address"
        },
        {
          "internalType": "uint256",
          "name": "allowance",
          "type": "uint256"
        },
        {
          "internalType": "uint256",
          "name": "needed",
          "type": "uint256"
        }
      ],
      "name": "ERC20InsufficientAllowance",
      "type": "error"
    },
    {
      "inputs": [
        {
          "internalType": "address",
          "name": "sender",
          "type": "address"
        },
        {
          "internalType": "uint256",
          "name": "balance",
          "type": "uint256"
        },
        {
          "internalType": "uint256",
          "name": "needed",
          "type": "uint256"
        }
      ],
      "name": "ERC20InsufficientBalance",
      "type": "error"
    },
    {
      "inputs": [
        {
          "internalType": "address",
          "name": "approver",
          "type": "address"
        }
      ],
      "name": "ERC20InvalidApprover",
      "type": "error"
    },
    {
      "inputs": [
        {
          "internalType": "address",
          "name": "receiver",
          "type": "address"
        }
      ],
      "name": "ERC20InvalidReceiver",
      "type": "error"
    },
    {
      "inputs": [
        {
          "internalType": "address",
          "name": "sender",
          "type": "address"
        }
      ],
      "name": "ERC20InvalidSender",
      "type": "error"
    },
    {
      "inputs": [
        {
          "internalType": "address",
          "name": "spender",
          "type": "address"
        }
      ],
      "name": "ERC20InvalidSpender",
      "type": "error"
    },
    {
      "inputs": [
        {
          "internalType": "address",
          "name": "owner",
          "type": "address"
        }
      ],
      "name": "OwnableInvalidOwner",
      "type": "error"
    },
    {
      "inputs": [
        {
          "internalType": "address",
          "name": "account",
          "type": "address"
        }
      ],
      "name": "OwnableUnauthorizedAccount",
      "type": "error"
    },
    {
      "anonymous": false,
      "inputs": [
        {
          "indexed": true,
          "internalType": "address",
          "name": "owner",
          "type": "address"
        },
        {
          "indexed": true,
          "internalType": "address",
          "name": "spender",
          "type": "address"
        },
        {
          "indexed": false,
          "internalType": "uint256",
          "name": "value",
          "type": "uint256"
        }
      ],
      "name": "Approval",
      "type": "event"
    },
    {
      "anonymous": false,
      "inputs": [
        {
          "indexed": true,
          "internalType": "address",
          "name": "to",
          "type": "address"
        },
        {
          "indexed": false,
          "internalType": "uint256",
          "name": "amount",
          "type": "uint256"
        }
      ],
      "name": "GLDMinted",
      "type": "event"
    },
    {
      "anonymous": false,
      "inputs": [
        {
          "indexed": true,
          "internalType": "address",
          "name": "buyer",
          "type": "address"
        },
        {
          "indexed": false,
          "internalType": "uint256",
          "name": "amount",
          "type": "uint256"
        }
      ],
      "name": "GoldPurchased",
      "type": "event"
    },
    {
      "anonymous": false,
      "inputs": [
        {
          "indexed": true,
          "internalType": "address",
          "name": "user",
          "type": "address"
        },
        {
          "indexed": false,
          "internalType": "uint256",
          "name": "amount",
          "type": "uint256"
        },
        {
          "indexed": false,
          "internalType": "uint256",
          "name": "timestamp",
          "type": "uint256"
        }
      ],
      "name": "GoldRedeemed",
      "type": "event"
    },
    {
      "anonymous": false,
      "inputs": [
        {
          "indexed": true,
          "internalType": "address",
          "name": "seller",
          "type": "address"
        },
        {
          "indexed": false,
          "internalType": "uint256",
          "name": "amount",
          "type": "uint256"
        }
      ],
      "name": "GoldSold",
      "type": "event"
    },
    {
      "anonymous": false,
      "inputs": [
        {
          "indexed": true,
          "internalType": "address",
          "name": "previousOwner",
          "type": "address"
        },
        {
          "indexed": true,
          "internalType": "address",
          "name": "newOwner",
          "type": "address"
        }
      ],
      "name": "OwnershipTransferred",
      "type": "event"
    },
    {
      "anonymous": false,
      "inputs": [
        {
          "indexed": false,
          "internalType": "uint256",
          "name": "sellPrice",
          "type": "uint256"
        },
        {
          "indexed": false,
          "internalType": "uint256",
          "name": "buyPrice",
          "type": "uint256"
        }
      ],
      "name": "PricesUpdated",
      "type": "event"
    },
    {
      "anonymous": false,
      "inputs": [
        {
          "indexed": true,
          "internalType": "address",
          "name": "from",
          "type": "address"
        },
        {
          "indexed": true,
          "internalType": "address",
          "name": "to",
          "type": "address"
        },
        {
          "indexed": false,
          "internalType": "uint256",
          "name": "value",
          "type": "uint256"
        }
      ],
      "name": "Transfer",
      "type": "event"
    },
    {
      "inputs": [
        {
          "internalType": "address",
          "name": "owner",
          "type": "address"
        },
        {
          "internalType": "address",
          "name": "spender",
          "type": "address"
        }
      ],
      "name": "allowance",
      "outputs": [
        {
          "internalType": "uint256",
          "name": "",
          "type": "uint256"
        }
      ],
      "stateMutability": "view",
      "type": "function"
    },
    {
      "inputs": [
        {
          "internalType": "address",
          "name": "spender",
          "type": "address"
        },
        {
          "internalType": "uint256",
          "name": "value",
          "type": "uint256"
        }
      ],
      "name": "approve",
      "outputs": [
        {
          "internalType": "bool",
          "name": "",
          "type": "bool"
        }
      ],
      "stateMutability": "nonpayable",
      "type": "function"
    },
    {
      "inputs": [
        {
          "internalType": "address",
          "name": "spender",
          "type": "address"
        },
        {
          "internalType": "uint256",
          "name": "amount",
          "type": "uint256"
        }
      ],
      "name": "approveGLD",
      "outputs": [
        {
          "internalType": "bool",
          "name": "",
          "type": "bool"
        }
      ],
      "stateMutability": "nonpayable",
      "type": "function"
    },
    {
      "inputs": [
        {
          "internalType": "address",
          "name": "account",
          "type": "address"
        }
      ],
      "name": "balanceOf",
      "outputs": [
        {
          "internalType": "uint256",
          "name": "",
          "type": "uint256"
        }
      ],
      "stateMutability": "view",
      "type": "function"
    },
    {
      "inputs": [
        {
          "internalType": "uint256",
          "name": "value",
          "type": "uint256"
        }
      ],
      "name": "burn",
      "outputs": [],
      "stateMutability": "nonpayable",
      "type": "function"
    },
    {
      "inputs": [
        {
          "internalType": "address",
          "name": "account",
          "type": "address"
        },
        {
          "internalType": "uint256",
          "name": "value",
          "type": "uint256"
        }
      ],
      "name": "burnFrom",
      "outputs": [],
      "stateMutability": "nonpayable",
      "type": "function"
    },
    {
      "inputs": [],
      "name": "buyGold",
      "outputs": [],
      "stateMutability": "payable",
      "type": "function"
    },
    {
      "inputs": [],
      "name": "buyPrice",
      "outputs": [
        {
          "internalType": "uint256",
          "name": "",
          "type": "uint256"
        }
      ],
      "stateMutability": "view",
      "type": "function"
    },
    {
      "inputs": [],
      "name": "decimals",
      "outputs": [
        {
          "internalType": "uint8",
          "name": "",
          "type": "uint8"
        }
      ],
      "stateMutability": "view",
      "type": "function"
    },
    {
      "inputs": [],
      "name": "getCirculatingSupply",
      "outputs": [
        {
          "internalType": "uint256",
          "name": "",
          "type": "uint256"
        }
      ],
      "stateMutability": "view",
      "type": "function"
    },
    {
      "inputs": [],
      "name": "getContractBalance",
      "outputs": [
        {
          "internalType": "uint256",
          "name": "",
          "type": "uint256"
        }
      ],
      "stateMutability": "view",
      "type": "function"
    },
    {
      "inputs": [],
      "name": "getGLDInventory",
      "outputs": [
        {
          "internalType": "uint256",
          "name": "",
          "type": "uint256"
        }
      ],
      "stateMutability": "view",
      "type": "function"
    },
    {
      "inputs": [],
      "name": "getPrices",
      "outputs": [
        {
          "internalType": "uint256",
          "name": "",
          "type": "uint256"
        },
        {
          "internalType": "uint256",
          "name": "",
          "type": "uint256"
        }
      ],
      "stateMutability": "view",
      "type": "function"
    },
    {
      "inputs": [],
      "name": "isFullyBacked",
      "outputs": [
        {
          "internalType": "bool",
          "name": "",
          "type": "bool"
        }
      ],
      "stateMutability": "view",
      "type": "function"
    },
    {
      "inputs": [
        {
          "internalType": "address",
          "name": "to",
          "type": "address"
        },
        {
          "internalType": "uint256",
          "name": "amount",
          "type": "uint256"
        }
      ],
      "name": "mintGLD",
      "outputs": [],
      "stateMutability": "nonpayable",
      "type": "function"
    },
    {
      "inputs": [],
      "name": "name",
      "outputs": [
        {
          "internalType": "string",
          "name": "",
          "type": "string"
        }
      ],
      "stateMutability": "view",
      "type": "function"
    },
    {
      "inputs": [],
      "name": "owner",
      "outputs": [
        {
          "internalType": "address",
          "name": "",
          "type": "address"
        }
      ],
      "stateMutability": "view",
      "type": "function"
    },
    {
      "inputs": [
        {
          "internalType": "address",
          "name": "user",
          "type": "address"
        },
        {
          "internalType": "uint256",
          "name": "amount",
          "type": "uint256"
        }
      ],
      "name": "redeemGoldFrom",
      "outputs": [],
      "stateMutability": "nonpayable",
      "type": "function"
    },
    {
      "inputs": [],
      "name": "renounceOwnership",
      "outputs": [],
      "stateMutability": "nonpayable",
      "type": "function"
    },
    {
      "inputs": [
        {
          "internalType": "uint256",
          "name": "amount",
          "type": "uint256"
        }
      ],
      "name": "sellGold",
      "outputs": [],
      "stateMutability": "nonpayable",
      "type": "function"
    },
    {
      "inputs": [],
      "name": "sellPrice",
      "outputs": [
        {
          "internalType": "uint256",
          "name": "",
          "type": "uint256"
        }
      ],
      "stateMutability": "view",
      "type": "function"
    },
    {
      "inputs": [],
      "name": "sellerWallet",
      "outputs": [
        {
          "internalType": "address payable",
          "name": "",
          "type": "address"
        }
      ],
      "stateMutability": "view",
      "type": "function"
    },
    {
      "inputs": [
        {
          "internalType": "uint256",
          "name": "newSellPrice",
          "type": "uint256"
        },
        {
          "internalType": "uint256",
          "name": "newBuyPrice",
          "type": "uint256"
        }
      ],
      "name": "setPrices",
      "outputs": [],
      "stateMutability": "nonpayable",
      "type": "function"
    },
    {
      "inputs": [],
      "name": "symbol",
      "outputs": [
        {
          "internalType": "string",
          "name": "",
          "type": "string"
        }
      ],
      "stateMutability": "view",
      "type": "function"
    },
    {
      "inputs": [],
      "name": "totalSupply",
      "outputs": [
        {
          "internalType": "uint256",
          "name": "",
          "type": "uint256"
        }
      ],
      "stateMutability": "view",
      "type": "function"
    },
    {
      "inputs": [
        {
          "internalType": "address",
          "name": "to",
          "type": "address"
        },
        {
          "internalType": "uint256",
          "name": "value",
          "type": "uint256"
        }
      ],
      "name": "transfer",
      "outputs": [
        {
          "internalType": "bool",
          "name": "",
          "type": "bool"
        }
      ],
      "stateMutability": "nonpayable",
      "type": "function"
    },
    {
      "inputs": [
        {
          "internalType": "address",
          "name": "from",
          "type": "address"
        },
        {
          "internalType": "address",
          "name": "to",
          "type": "address"
        },
        {
          "internalType": "uint256",
          "name": "value",
          "type": "uint256"
        }
      ],
      "name": "transferFrom",
      "outputs": [
        {
          "internalType": "bool",
          "name": "",
          "type": "bool"
        }
      ],
      "stateMutability": "nonpayable",
      "type": "function"
    },
    {
      "inputs": [
        {
          "internalType": "address",
          "name": "newOwner",
          "type": "address"
        }
      ],
      "name": "transferOwnership",
      "outputs": [],
      "stateMutability": "nonpayable",
      "type": "function"
    }
  ],
  "bytecode": "0x60806040523480156200001157600080fd5b506040516200325438038062003254833981810160405281019062000037919062000716565b806040518060400160405280600a81526020017f476f6c6420546f6b656e000000000000000000000000000000000000000000008152506040518060400160405280600381526020017f474c4400000000000000000000000000000000000000000000000000000000008152508160039081620000b59190620009f8565b508060049081620000c79190620009f8565b505050600073ffffffffffffffffffffffffffffffffffffffff168173ffffffffffffffffffffffffffffffffffffffff16036200013f5760006040517f1e4fbdf700000000000000000000000000000000000000000000000000000000815260040162000136919062000af0565b60405180910390fd5b6200015081620002a060201b60201c565b50600073ffffffffffffffffffffffffffffffffffffffff168473ffffffffffffffffffffffffffffffffffffffff1603620001c3576040517f08c379a0000000000000000000000000000000000000000000000000000000008152600401620001ba9062000b6e565b60405180910390fd5b82821062000208576040517f08c379a0000000000000000000000000000000000000000000000000000000008152600401620001ff9062000c06565b60405180910390fd5b83600860006101000a81548173ffffffffffffffffffffffffffffffffffffffff021916908373ffffffffffffffffffffffffffffffffffffffff160217905550826006819055508160078190555062000296306200026c6200036660201b60201c565b600a6200027a919062000db8565b620f42406200028a919062000e09565b6200036f60201b60201c565b5050505062000efa565b6000600560009054906101000a900473ffffffffffffffffffffffffffffffffffffffff16905081600560006101000a81548173ffffffffffffffffffffffffffffffffffffffff021916908373ffffffffffffffffffffffffffffffffffffffff1602179055508173ffffffffffffffffffffffffffffffffffffffff168173ffffffffffffffffffffffffffffffffffffffff167f8be0079c531659141344cd1fd0a4f28419497f9722a3daafe3b4186f6b6457e060405160405180910390a35050565b60006012905090565b600073ffffffffffffffffffffffffffffffffffffffff168273ffffffffffffffffffffffffffffffffffffffff1603620003e45760006040517fec442f05000000000000000000000000000000000000000000000000000000008152600401620003db919062000af0565b60405180910390fd5b620003f860008383620003fc60201b60201c565b5050565b600073ffffffffffffffffffffffffffffffffffffffff168373ffffffffffffffffffffffffffffffffffffffff16036200045257806002600082825462000445919062000e54565b9250508190555062000528565b60008060008573ffffffffffffffffffffffffffffffffffffffff1673ffffffffffffffffffffffffffffffffffffffff16815260200190815260200160002054905081811015620004e1578381836040517fe450d38c000000000000000000000000000000000000000000000000000000008152600401620004d89392919062000ea0565b60405180910390fd5b8181036000808673ffffffffffffffffffffffffffffffffffffffff1673ffffffffffffffffffffffffffffffffffffffff16815260200190815260200160002081905550505b600073ffffffffffffffffffffffffffffffffffffffff168273ffffffffffffffffffffffffffffffffffffffff1603620005735780600260008282540392505081905550620005c0565b806000808473ffffffffffffffffffffffffffffffffffffffff1673ffffffffffffffffffffffffffffffffffffffff168152602001908152602001600020600082825401925050819055505b8173ffffffffffffffffffffffffffffffffffffffff168373ffffffffffffffffffffffffffffffffffffffff167fddf252ad1be2c89b69c2b068fc378daa952ba7f163c4a11628f55a4df523b3ef836040516200061f919062000edd565b60405180910390a3505050565b600080fd5b600073ffffffffffffffffffffffffffffffffffffffff82169050919050565b60006200065e8262000631565b9050919050565b620006708162000651565b81146200067c57600080fd5b50565b600081519050620006908162000665565b92915050565b6000819050919050565b620006ab8162000696565b8114620006b757600080fd5b50565b600081519050620006cb81620006a0565b92915050565b6000620006de8262000631565b9050919050565b620006f081620006d1565b8114620006fc57600080fd5b50565b6000815190506200071081620006e5565b92915050565b600080600080608085870312156200073357620007326200062c565b5b600062000743878288016200067f565b94505060206200075687828801620006ba565b93505060406200076987828801620006ba565b92505060606200077c87828801620006ff565b91505092959194509250565b600081519050919050565b7f4e487b7100000000000000000000000000000000000000000000000000000000600052604160045260246000fd5b7f4e487b7100000000000000000000000000000000000000000000000000000000600052602260045260246000fd5b600060028204905060018216806200080a57607f821691505b60208210810362000820576200081f620007c2565b5b50919050565b60008190508160005260206000209050919050565b60006020601f8301049050919050565b600082821b905092915050565b6000600883026200088a7fffffffffffffffffffffffffffffffffffffffffffffffffffffffffffffffff826200084b565b6200089686836200084b565b95508019841693508086168417925050509392505050565b6000819050919050565b6000620008d9620008d3620008cd8462000696565b620008ae565b62000696565b9050919050565b6000819050919050565b620008f583620008b8565b6200090d6200090482620008e0565b84845462000858565b825550505050565b600090565b6200092462000915565b62000931818484620008ea565b505050565b5b8181101562000959576200094d6000826200091a565b60018101905062000937565b5050565b601f821115620009a857620009728162000826565b6200097d846200083b565b810160208510156200098d578190505b620009a56200099c856200083b565b83018262000936565b50505b505050565b600082821c905092915050565b6000620009cd60001984600802620009ad565b1980831691505092915050565b6000620009e88383620009ba565b9150826002028217905092915050565b62000a038262000788565b67ffffffffffffffff81111562000a1f5762000a1e62000793565b5b62000a2b8254620007f1565b62000a388282856200095d565b600060209050601f83116001811462000a70576000841562000a5b578287015190505b62000a678582620009da565b86555062000ad7565b601f19841662000a808662000826565b60005b8281101562000aaa5784890151825560018201915060208501945060208101905062000a83565b8683101562000aca578489015162000ac6601f891682620009ba565b8355505b6001600288020188555050505b505050505050565b62000aea81620006d1565b82525050565b600060208201905062000b07600083018462000adf565b92915050565b600082825260208201905092915050565b7f496e76616c69642073656c6c65722077616c6c65740000000000000000000000600082015250565b600062000b5660158362000b0d565b915062000b638262000b1e565b602082019050919050565b6000602082019050818103600083015262000b898162000b47565b9050919050565b7f427579207072696365206d757374206265206c657373207468616e2073656c6c60008201527f2070726963650000000000000000000000000000000000000000000000000000602082015250565b600062000bee60268362000b0d565b915062000bfb8262000b90565b604082019050919050565b6000602082019050818103600083015262000c218162000bdf565b9050919050565b7f4e487b7100000000000000000000000000000000000000000000000000000000600052601160045260246000fd5b60008160011c9050919050565b6000808291508390505b600185111562000cb65780860481111562000c8e5762000c8d62000c28565b5b600185161562000c9e5780820291505b808102905062000cae8562000c57565b945062000c6e565b94509492505050565b60008262000cd1576001905062000da4565b8162000ce1576000905062000da4565b816001811462000cfa576002811462000d055762000d3b565b600191505062000da4565b60ff84111562000d1a5762000d1962000c28565b5b8360020a91508482111562000d345762000d3362000c28565b5b5062000da4565b5060208310610133831016604e8410600b841016171562000d755782820a90508381111562000d6f5762000d6e62000c28565b5b62000da4565b62000d84848484600162000c64565b9250905081840481111562000d9e5762000d9d62000c28565b5b81810290505b9392505050565b600060ff82169050919050565b600062000dc58262000696565b915062000dd28362000dab565b925062000e017fffffffffffffffffffffffffffffffffffffffffffffffffffffffffffffffff848462000cbf565b905092915050565b600062000e168262000696565b915062000e238362000696565b925082820262000e338162000696565b9150828204841483151762000e4d5762000e4c62000c28565b5b5092915050565b600062000e618262000696565b915062000e6e8362000696565b925082820190508082111562000e895762000e8862000c28565b5b92915050565b62000e9a8162000696565b82525050565b600060608201905062000eb7600083018662000adf565b62000ec6602083018562000e8f565b62000ed5604083018462000e8f565b949350505050565b600060208201905062000ef4600083018462000e8f565b92915050565b61234a8062000f0a6000396000f3fe6080604052600436106101b75760003560e01c806370a08231116100ec5780638da5cb5b1161008a578063bd9a548b11610064578063bd9a548b146105df578063dd62ed3e1461060b578063e6139e4614610648578063f2fde38b14610671576101b7565b80638da5cb5b1461054c57806395d89b4114610577578063a9059cbb146105a2576101b7565b80637dc4e694116100c65780637dc4e6941461048e57806382dead16146104b95780638460a5de146104f65780638620410b14610521576101b7565b806370a0823114610411578063715018a61461044e57806379cc679014610465576101b7565b80632f7b8af4116101595780634b750334116101335780634b7503341461036757806350911ace1461039257806369fe17d6146103bb5780636f9fb98a146103e6576101b7565b80632f7b8af414610309578063313ce5671461031357806342966c681461033e576101b7565b80630f1d4a83116101955780630f1d4a831461024d57806318160ddd1461027657806323b872dd146102a15780632b112e49146102de576101b7565b806305fefda7146101bc57806306fdde03146101e5578063095ea7b314610210575b600080fd5b3480156101c857600080fd5b506101e360048036038101906101de9190611909565b61069a565b005b3480156101f157600080fd5b506101fa61072f565b60405161020791906119d9565b60405180910390f35b34801561021c57600080fd5b5061023760048036038101906102329190611a59565b6107c1565b6040516102449190611ab4565b60405180910390f35b34801561025957600080fd5b50610274600480360381019061026f9190611a59565b6107e4565b005b34801561028257600080fd5b5061028b6108b9565b6040516102989190611ade565b60405180910390f35b3480156102ad57600080fd5b506102c860048036038101906102c39190611af9565b6108c3565b6040516102d59190611ab4565b60405180910390f35b3480156102ea57600080fd5b506102f36108f2565b6040516103009190611ade565b60405180910390f35b610311610914565b005b34801561031f57600080fd5b50610328610b6a565b6040516103359190611b68565b60405180910390f35b34801561034a57600080fd5b5061036560048036038101906103609190611b83565b610b73565b005b34801561037357600080fd5b5061037c610b87565b6040516103899190611ade565b60405180910390f35b34801561039e57600080fd5b506103b960048036038101906103b49190611b83565b610b8d565b005b3480156103c757600080fd5b506103d0610cef565b6040516103dd9190611ab4565b60405180910390f35b3480156103f257600080fd5b506103fb610d37565b6040516104089190611ade565b60405180910390f35b34801561041d57600080fd5b5061043860048036038101906104339190611bb0565b610d3f565b6040516104459190611ade565b60405180910390f35b34801561045a57600080fd5b50610463610d87565b005b34801561047157600080fd5b5061048c60048036038101906104879190611a59565b610d9b565b005b34801561049a57600080fd5b506104a3610dbb565b6040516104b09190611ade565b60405180910390f35b3480156104c557600080fd5b506104e060048036038101906104db9190611a59565b610dcb565b6040516104ed9190611ab4565b60405180910390f35b34801561050257600080fd5b5061050b610de2565b6040516105189190611bfe565b60405180910390f35b34801561052d57600080fd5b50610536610e08565b6040516105439190611ade565b60405180910390f35b34801561055857600080fd5b50610561610e0e565b60405161056e9190611c28565b60405180910390f35b34801561058357600080fd5b5061058c610e38565b60405161059991906119d9565b60405180910390f35b3480156105ae57600080fd5b506105c960048036038101906105c49190611a59565b610eca565b6040516105d69190611ab4565b60405180910390f35b3480156105eb57600080fd5b506105f4610eed565b604051610602929190611c43565b60405180910390f35b34801561061757600080fd5b50610632600480360381019061062d9190611c6c565b610efe565b60405161063f9190611ade565b60405180910390f35b34801561065457600080fd5b5061066f600480360381019061066a9190611a59565b610f85565b005b34801561067d57600080fd5b5061069860048036038101906106939190611bb0565b611058565b005b6106a26110de565b8181106106e4576040517f08c379a00000000000000000000000000000000000000000000000000000000081526004016106db90611d1e565b60405180910390fd5b81600681905550806007819055507f6546f60f34df611fa42503098acc39d5ab88bc73febe64b3cc14e5a92e3a66a78282604051610723929190611c43565b60405180910390a15050565b60606003805461073e90611d6d565b80601f016020809104026020016040519081016040528092919081815260200182805461076a90611d6d565b80156107b75780601f1061078c576101008083540402835291602001916107b7565b820191906000526020600020905b81548152906001019060200180831161079a57829003601f168201915b5050505050905090565b6000806107cc611165565b90506107d981858561116d565b600191505092915050565b6107ec6110de565b600073ffffffffffffffffffffffffffffffffffffffff168273ffffffffffffffffffffffffffffffffffffffff160361085b576040517f08c379a000000000000000000000000000000000000000000000000000000000815260040161085290611dea565b60405180910390fd5b6108658282610d9b565b8173ffffffffffffffffffffffffffffffffffffffff167f25c2edd5bef4f58462fc9321c0c5d40ae4ecf266f680d5d96cdf5aa6067311fa82426040516108ad929190611c43565b60405180910390a25050565b6000600254905090565b6000806108ce611165565b90506108db85828561117f565b6108e6858585611214565b60019150509392505050565b60006108fd30610d3f565b6109056108b9565b61090f9190611e39565b905090565b600654341015610959576040517f08c379a000000000000000000000000000000000000000000000000000000000815260040161095090611eb9565b60405180910390fd5b6000600654610966610b6a565b600a610972919061200c565b3461097d9190612057565b61098791906120c8565b90506000610993610b6a565b600a61099f919061200c565b600654836109ad9190612057565b6109b791906120c8565b9050600081346109c79190611e39565b9050826109d330610d3f565b1015610a14576040517f08c379a0000000000000000000000000000000000000000000000000000000008152600401610a0b90612145565b60405180910390fd5b6000610a1e610b6a565b600a610a2a919061200c565b84600754600654610a3b9190611e39565b610a459190612057565b610a4f91906120c8565b9050600860009054906101000a900473ffffffffffffffffffffffffffffffffffffffff1673ffffffffffffffffffffffffffffffffffffffff166108fc829081150290604051600060405180830381858888f19350505050158015610ab9573d6000803e3d6000fd5b50610ac5303386611214565b6000821115610b16573373ffffffffffffffffffffffffffffffffffffffff166108fc839081150290604051600060405180830381858888f19350505050158015610b14573d6000803e3d6000fd5b505b3373ffffffffffffffffffffffffffffffffffffffff167f24f85829f6353229354e15bc306c18bf56099338601cd8e1f213fea417c46b7785604051610b5c9190611ade565b60405180910390a250505050565b60006012905090565b610b84610b7e611165565b82611308565b50565b60065481565b80610b9733610d3f565b1015610bd8576040517f08c379a0000000000000000000000000000000000000000000000000000000008152600401610bcf906121b1565b60405180910390fd5b6000610be2610b6a565b600a610bee919061200c565b82600754610bfc9190612057565b610c0691906120c8565b905080471015610c4b576040517f08c379a0000000000000000000000000000000000000000000000000000000008152600401610c429061221d565b60405180910390fd5b610c56333084611214565b3373ffffffffffffffffffffffffffffffffffffffff166108fc829081150290604051600060405180830381858888f19350505050158015610c9c573d6000803e3d6000fd5b503373ffffffffffffffffffffffffffffffffffffffff167f623ec7ef71f50133d75801a01220c27bd1fe4c19e63737f471172025b6e0b2ca83604051610ce39190611ade565b60405180910390a25050565b600080610cfa6108f2565b90506000610d06610b6a565b600a610d12919061200c565b60075483610d209190612057565b610d2a91906120c8565b9050804710159250505090565b600047905090565b60008060008373ffffffffffffffffffffffffffffffffffffffff1673ffffffffffffffffffffffffffffffffffffffff168152602001908152602001600020549050919050565b610d8f6110de565b610d99600061138a565b565b610dad82610da7611165565b8361117f565b610db78282611308565b5050565b6000610dc630610d3f565b905090565b6000610dd833848461116d565b6001905092915050565b600860009054906101000a900473ffffffffffffffffffffffffffffffffffffffff1681565b60075481565b6000600560009054906101000a900473ffffffffffffffffffffffffffffffffffffffff16905090565b606060048054610e4790611d6d565b80601f0160208091040260200160405190810160405280929190818152602001828054610e7390611d6d565b8015610ec05780601f10610e9557610100808354040283529160200191610ec0565b820191906000526020600020905b815481529060010190602001808311610ea357829003601f168201915b5050505050905090565b600080610ed5611165565b9050610ee2818585611214565b600191505092915050565b600080600654600754915091509091565b6000600160008473ffffffffffffffffffffffffffffffffffffffff1673ffffffffffffffffffffffffffffffffffffffff16815260200190815260200160002060008373ffffffffffffffffffffffffffffffffffffffff1673ffffffffffffffffffffffffffffffffffffffff16815260200190815260200160002054905092915050565b610f8d6110de565b600073ffffffffffffffffffffffffffffffffffffffff168273ffffffffffffffffffffffffffffffffffffffff1603610ffc576040517f08c379a0000000000000000000000000000000000000000000000000000000008152600401610ff390612289565b60405180910390fd5b6110068282611450565b8173ffffffffffffffffffffffffffffffffffffffff167f25b2907b51b54fe24738d1c2c29e9c4db20149e9f06318a74feb2b9f3e54ea268260405161104c9190611ade565b60405180910390a25050565b6110606110de565b600073ffffffffffffffffffffffffffffffffffffffff168173ffffffffffffffffffffffffffffffffffffffff16036110d25760006040517f1e4fbdf70000000000000000000000000000000000000000000000000000000081526004016110c99190611c28565b60405180910390fd5b6110db8161138a565b50565b6110e6611165565b73ffffffffffffffffffffffffffffffffffffffff16611104610e0e565b73ffffffffffffffffffffffffffffffffffffffff161461116357611127611165565b6040517f118cdaa700000000000000000000000000000000000000000000000000000000815260040161115a9190611c28565b60405180910390fd5b565b600033905090565b61117a83838360016114d2565b505050565b600061118b8484610efe565b90507fffffffffffffffffffffffffffffffffffffffffffffffffffffffffffffffff81101561120e57818110156111fe578281836040517ffb8f41b20000000000000000000000000000000000000000000000000000000081526004016111f5939291906122a9565b60405180910390fd5b61120d848484840360006114d2565b5b50505050565b600073ffffffffffffffffffffffffffffffffffffffff168373ffffffffffffffffffffffffffffffffffffffff16036112865760006040517f96c6fd1e00000000000000000000000000000000000000000000000000000000815260040161127d9190611c28565b60405180910390fd5b600073ffffffffffffffffffffffffffffffffffffffff168273ffffffffffffffffffffffffffffffffffffffff16036112f85760006040517fec442f050000000000000000000000000000000000000000000000000000000081526004016112ef9190611c28565b60405180910390fd5b6113038383836116a9565b505050565b600073ffffffffffffffffffffffffffffffffffffffff168273ffffffffffffffffffffffffffffffffffffffff160361137a5760006040517f96c6fd1e0000000000000000000000000000000000000000000000000000000081526004016113719190611c28565b60405180910390fd5b611386826000836116a9565b5050565b6000600560009054906101000a900473ffffffffffffffffffffffffffffffffffffffff16905081600560006101000a81548173ffffffffffffffffffffffffffffffffffffffff021916908373ffffffffffffffffffffffffffffffffffffffff1602179055508173ffffffffffffffffffffffffffffffffffffffff168173ffffffffffffffffffffffffffffffffffffffff167f8be0079c531659141344cd1fd0a4f28419497f9722a3daafe3b4186f6b6457e060405160405180910390a35050565b600073ffffffffffffffffffffffffffffffffffffffff168273ffffffffffffffffffffffffffffffffffffffff16036114c25760006040517fec442f050000000000000000000000000000000000000000000000000000000081526004016114b99190611c28565b60405180910390fd5b6114ce600083836116a9565b5050565b600073ffffffffffffffffffffffffffffffffffffffff168473ffffffffffffffffffffffffffffffffffffffff16036115445760006040517fe602df0500000000000000000000000000000000000000000000000000000000815260040161153b9190611c28565b60405180910390fd5b600073ffffffffffffffffffffffffffffffffffffffff168373ffffffffffffffffffffffffffffffffffffffff16036115b65760006040517f94280d620000000000000000000000000000000000000000000000000000000081526004016115ad9190611c28565b60405180910390fd5b81600160008673ffffffffffffffffffffffffffffffffffffffff1673ffffffffffffffffffffffffffffffffffffffff16815260200190815260200160002060008573ffffffffffffffffffffffffffffffffffffffff1673ffffffffffffffffffffffffffffffffffffffff1681526020019081526020016000208190555080156116a3578273ffffffffffffffffffffffffffffffffffffffff168473ffffffffffffffffffffffffffffffffffffffff167f8c5be1e5ebec7d5bd14f71427d1e84f3dd0314c0f7b2291e5b200ac8c7c3b9258460405161169a9190611ade565b60405180910390a35b50505050565b600073ffffffffffffffffffffffffffffffffffffffff168373ffffffffffffffffffffffffffffffffffffffff16036116fb5780600260008282546116ef91906122e0565b925050819055506117ce565b60008060008573ffffffffffffffffffffffffffffffffffffffff1673ffffffffffffffffffffffffffffffffffffffff16815260200190815260200160002054905081811015611787578381836040517fe450d38c00000000000000000000000000000000000000000000000000000000815260040161177e939291906122a9565b60405180910390fd5b8181036000808673ffffffffffffffffffffffffffffffffffffffff1673ffffffffffffffffffffffffffffffffffffffff16815260200190815260200160002081905550505b600073ffffffffffffffffffffffffffffffffffffffff168273ffffffffffffffffffffffffffffffffffffffff16036118175780600260008282540392505081905550611864565b806000808473ffffffffffffffffffffffffffffffffffffffff1673ffffffffffffffffffffffffffffffffffffffff168152602001908152602001600020600082825401925050819055505b8173ffffffffffffffffffffffffffffffffffffffff168373ffffffffffffffffffffffffffffffffffffffff167fddf252ad1be2c89b69c2b068fc378daa952ba7f163c4a11628f55a4df523b3ef836040516118c19190611ade565b60405180910390a3505050565b600080fd5b6000819050919050565b6118e6816118d3565b81146118f157600080fd5b50565b600081359050611903816118dd565b92915050565b600080604083850312156119205761191f6118ce565b5b600061192e858286016118f4565b925050602061193f858286016118f4565b9150509250929050565b600081519050919050565b600082825260208201905092915050565b60005b83811015611983578082015181840152602081019050611968565b60008484015250505050565b6000601f19601f8301169050919050565b60006119ab82611949565b6119b58185611954565b93506119c5818560208601611965565b6119ce8161198f565b840191505092915050565b600060208201905081810360008301526119f381846119a0565b905092915050565b600073ffffffffffffffffffffffffffffffffffffffff82169050919050565b6000611a26826119fb565b9050919050565b611a3681611a1b565b8114611a4157600080fd5b50565b600081359050611a5381611a2d565b92915050565b60008060408385031215611a7057611a6f6118ce565b5b6000611a7e85828601611a44565b9250506020611a8f858286016118f4565b9150509250929050565b60008115159050919050565b611aae81611a99565b82525050565b6000602082019050611ac96000830184611aa5565b92915050565b611ad8816118d3565b82525050565b6000602082019050611af36000830184611acf565b92915050565b600080600060608486031215611b1257611b116118ce565b5b6000611b2086828701611a44565b9350506020611b3186828701611a44565b9250506040611b42868287016118f4565b9150509250925092565b600060ff82169050919050565b611b6281611b4c565b82525050565b6000602082019050611b7d6000830184611b59565b92915050565b600060208284031215611b9957611b986118ce565b5b6000611ba7848285016118f4565b91505092915050565b600060208284031215611bc657611bc56118ce565b5b6000611bd484828501611a44565b91505092915050565b6000611be8826119fb565b9050919050565b611bf881611bdd565b82525050565b6000602082019050611c136000830184611bef565b92915050565b611c2281611a1b565b82525050565b6000602082019050611c3d6000830184611c19565b92915050565b6000604082019050611c586000830185611acf565b611c656020830184611acf565b9392505050565b60008060408385031215611c8357611c826118ce565b5b6000611c9185828601611a44565b9250506020611ca285828601611a44565b9150509250929050565b7f427579207072696365206d757374206265206c6f776572207468616e2073656c60008201527f6c20707269636500000000000000000000000000000000000000000000000000602082015250565b6000611d08602783611954565b9150611d1382611cac565b604082019050919050565b60006020820190508181036000830152611d3781611cfb565b9050919050565b7f4e487b7100000000000000000000000000000000000000000000000000000000600052602260045260246000fd5b60006002820490506001821680611d8557607f821691505b602082108103611d9857611d97611d3e565b5b50919050565b7f496e76616c696420757365722061646472657373000000000000000000000000600082015250565b6000611dd4601483611954565b9150611ddf82611d9e565b602082019050919050565b60006020820190508181036000830152611e0381611dc7565b9050919050565b7f4e487b7100000000000000000000000000000000000000000000000000000000600052601160045260246000fd5b6000611e44826118d3565b9150611e4f836118d3565b9250828203905081811115611e6757611e66611e0a565b5b92915050565b7f4554482073656e7420697320746f6f206c6f7700000000000000000000000000600082015250565b6000611ea3601383611954565b9150611eae82611e6d565b602082019050919050565b60006020820190508181036000830152611ed281611e96565b9050919050565b60008160011c9050919050565b6000808291508390505b6001851115611f3057808604811115611f0c57611f0b611e0a565b5b6001851615611f1b5780820291505b8081029050611f2985611ed9565b9450611ef0565b94509492505050565b600082611f495760019050612005565b81611f575760009050612005565b8160018114611f6d5760028114611f7757611fa6565b6001915050612005565b60ff841115611f8957611f88611e0a565b5b8360020a915084821115611fa057611f9f611e0a565b5b50612005565b5060208310610133831016604e8410600b8410161715611fdb5782820a905083811115611fd657611fd5611e0a565b5b612005565b611fe88484846001611ee6565b92509050818404811115611fff57611ffe611e0a565b5b81810290505b9392505050565b6000612017826118d3565b915061202283611b4c565b925061204f7fffffffffffffffffffffffffffffffffffffffffffffffffffffffffffffffff8484611f39565b905092915050565b6000612062826118d3565b915061206d836118d3565b925082820261207b816118d3565b9150828204841483151761209257612091611e0a565b5b5092915050565b7f4e487b7100000000000000000000000000000000000000000000000000000000600052601260045260246000fd5b60006120d3826118d3565b91506120de836118d3565b9250826120ee576120ed612099565b5b828204905092915050565b7f496e73756666696369656e7420474c4420696e20636f6e747261637400000000600082015250565b600061212f601c83611954565b915061213a826120f9565b602082019050919050565b6000602082019050818103600083015261215e81612122565b9050919050565b7f4e6f7420656e6f75676820474c44000000000000000000000000000000000000600082015250565b600061219b600e83611954565b91506121a682612165565b602082019050919050565b600060208201905081810360008301526121ca8161218e565b9050919050565b7f496e73756666696369656e742045544820696e20636f6e747261637400000000600082015250565b6000612207601c83611954565b9150612212826121d1565b602082019050919050565b60006020820190508181036000830152612236816121fa565b9050919050565b7f496e76616c696420616464726573730000000000000000000000000000000000600082015250565b6000612273600f83611954565b915061227e8261223d565b602082019050919050565b600060208201905081810360008301526122a281612266565b9050919050565b60006060820190506122be6000830186611c19565b6122cb6020830185611acf565b6122d86040830184611acf565b949350505050565b60006122eb826118d3565b91506122f6836118d3565b925082820190508082111561230e5761230d611e0a565b5b9291505056fea2646970667358221220e3171e0779a480d043feca644bf65d09313ca7713d30e84a016cde2c5c87493d64736f6c63430008140033",
  "linkReferences": {},
  "deployedLinkReferences": {}
}